:020000040800F2
:1000000000000220958205081596000841EC0108C1
:100010004583050845830508458305080000000061
:1000200000000000000000000000000051AE0008C9
:1000300053AE00080000000055AE0008DD0E0108B8
:10004000458305084583050845830508458305085C
:10005000458305084583050879FD00087DFD0008F6
:100060004583050881FD000885FD0008219B0008E7
:10007000359B0008499B00085D9B0008719B0008A8
:10008000859B0008999B0008458305080000000037
:1000900000000000000000000000000089FD0008D2
:1000A000599A0008819A0008A99A0008459A000800
:1000B000D19A0008E59A0008F99A000845830508D6
:1000C00045830508458305084583050845830508DC
:1000D000458305085D970008699700080000000047
:1000E0008DFD00084583050857AE0008000000009C
:1000F000000000000000000000000000AD9B0008B0
:1001000000000000458305080D9B00084583050895
:1001100000000000000000000000000000000000DF
:10012000C19B0008D59B0008E99B0008FD9B0008C7
:10013000119C00080000000000000000000000000A
:10014000000000000000000000000000A9AE000850
:10015000259C0008399C00084D9C00084583050833
:1001600045830508458305080000000000000000E5
:10017000000000000000000000000000000000007F
:10018000000000004583050800000000000000009A
:080190004583050845830508BD
:08019800287E050001000000B3
:1001A0005CE100200202000001012C007CE1002043
:1001B000010B0000000076009CE100200119000006
:1001C00000000D00BCE100200131000000003C00F7
:0C01D000DCE100200134000000002000F1
:10800000D0E907239A422FBFD01AC0688018C01A3F
:108010007047D0E9092300699A4238BF1218D31A71
:108020000138C01A7047D0E90902131A5842584162
:108030007047036A41690246C85CD16801338B42CC
:1080400028BF002313627047436A8269D154436A90
:1080500002690133934228BF0023426B4362D36815
:1080600043F08003D3607047436B188810F0100012
:108070001EBF1A889B8801207047436B99891A8814
:10808000890610B592B2044607D5900605D5E26A76
:1080900022B39888216B80B29047636B99891A88C4
:1080A000090692B20FD510060DD5D4E909128A42FD
:1080B00022D0A169895C998021690132B2FBF1F07B
:1080C00001FB1022A262998A1A88C90592B204D5CE
:1080D000D20744BF4FF6F7721A8010BD9B88E26941
:1080E0006169DBB28B54E369E2680133B3FBF2F1FF
:1080F00002FB1133E361D0E7DA6822F08002DA6034
:10810000E1E7704770470E4BDA68D20310D4DA68A3
:10811000D1060FD4DA68D2050ED4DA6812F0E00F77
:108120000CD1DB6813F0020F14BF08200920704740
:1081300001207047062070470220704707207047D3
:10814000003C024007B509238DF80730FFF7DBFF3D
:108150008DF807009DF80730012BF7D09DF8070038
:1081600003B05DF804FB838A028B9BB243EA0243AF
:1081700031EA03030CBF01200020704782B00023C6
:1081800001930093012300900193019B63B1009A36
:1081900021F07F4314320092009A12681A4214BFF1
:1081A0000120002002B07047009A1832F3E77047B0
:1081B000704701207047044BD3E90003984288BF01
:1081C00003F50063181A704788140020054AD2E9A5
:1081D00000318B42FDD0D1180133C3F30A03087A72
:1081E0001360704788140020044BD3F8080820B1AE
:1081F000D3F80808431F584258417047881400209C
:10820000012380F84930704710B5D0F8E8350446AE
:108210001B699847032384F81231002010BD08B56C
:1082200090F8123180F81331042380F81231D0F81D
:10823000E835DB689847002008BD08B5D0F8E4357C
:10824000DB6903B19847002008BD08B5D0F8E435D4
:108250001B6A9847002008BD08B5D0F8E4355B6A72
:108260009847002008BD10B5074C2068FF2808D0AB
:108270000649D1F80C2801F5016100F035F8FF231B
:108280002360002010BD00BF0000002088140020E3
:10829000432301480B80704704000020122301484B
:1082A0000B80704747000020042301480B80704773
:1082B00059000020704770477047704770477047FB
:1082C000044B00200522C3F80828C3F81808C3F897
:1082D0001C08704788140020024B0020C3F80808CF
:1082E000704700BF88140020212838B50C461BD0E9
:1082F00022282BD0202815D1A1B1072A12D11A4D3E
:10830000D5F81C3813B10968002098472368C5F8D0
:108310002038237985F82438637985F82538A379BE
:1083200085F82638002038BD0029FBD0072AF9D16E
:108330000D4BD3F820280A6093F824280A7193F88B
:1083400025284A7193F826388B71EBE70029E9D08C
:10835000022AE7D1044BD3F81838002BE2D0098861
:1083600000209847DEE700BF88140020074AD2F8B3
:108370002838D2F82C28934203F1FF338CBF002019
:1083800001209B1A03EBC020704700BF8814002017
:10839000ECE730B50F4CD4E900239A4286BF03F5D1
:1083A0000065AA1A9A1A0A44B2F5006F10D801445F
:1083B0000022814203D102B16360002030BDE21887
:1083C00010F8015B15720133C3F30A030122F0E7D1
:1083D0000220F3E788140020007970470079C0F389
:1083E0004010704700794009704700BF704700BFD8
:1083F000704700BFD0ED007AD0ED036A30EE677AA7
:10840000E6EE877AB0EE670AC0ED007A704700BFEB
:10841000D0ED017A80ED021AF5EE407AF1EE10FA15
:1084200004BF9FED0C7AC7EE207A31EE277A08BFA1
:10843000C0ED017AC1EE076AD0ED007AC0ED036AA3
:1084400030EE677AE6EE877AB0EE670AC0ED007A22
:10845000704700BF83F9223E9FED047AC7EE007A91
:1084600077EEA07A80EEA70A704700BF72C7D13DB1
:1084700000230360436080ED020A704790ED017AAB
:10848000D0ED036AD0ED027A30EE470AA6EE807A8C
:1084900090ED000A80ED017A37EE676AE6EE867AA3
:1084A00037EEC07AC0ED027AA6EE870A80ED000AA8
:1084B000704700BFD0ED056AD0ED017A90ED007AEB
:1084C00090ED066AD0ED025A90ED035A80ED050A50
:1084D00066EEA77AC0ED066AE7EE007A90ED077ABD
:1084E000E5EE867A90ED086AD0ED045A80ED087AC0
:1084F000E5EE477AE5EEC67AB0EE670AC0ED077A98
:10850000704700BFD0ED057A90ED006A90ED067AD5
:10851000D0ED035AE6EE007A90ED016AF0EE406A83
:10852000A6EE267AB0EE670AD0ED047A90ED026AE4
:1085300067EEC07AA5EEC07AE6EE267A80ED057A7F
:10854000C0ED067A704703685A1C026019707047C4
:1085500003690133012B03611CD0D0ED005AD0ED2B
:10856000026A07EE903A30EE656AF8EEE77A86EE38
:10857000277A77EE257AB0EE667A30EE670AC0ED9C
:10858000017AA6EE007AC0ED007A80ED037A80EDE4
:10859000027A7047002380ED010A80ED000A8360B3
:1085A000704703685A1C02601970704790F83020B9
:1085B000034602F0FF0012B1002283F8302070471A
:1085C0004FF400638381704710B5064A04230021ED
:1085D00052F8044B844208BF42F8041C013BF7D117
:1085E00010BD00BFB81C002001207047012070475B
:1085F000012070472DE9F843604F1546D7F84048F1
:10860000B7F84428B7F84A98C2EB24135200C2EBDB
:10861000E402B7F94648624303FB03F4B7F948386C
:1086200024135C43A41304EBE224B7F94E38C7F8D3
:108630005C480E46A4F5FA3181FB01CE4FEAE3789F
:1086400003FB0EF20CFB0822A3FB0C389044B7F995
:108650004C2882FB01021B0A120343EA086342EA28
:10866000105200031B1842EB282202F50042A3FB24
:10867000093809FB02884FEAE8734FEA680253EAB7
:1086800068084FF000006DD0B7F954984FEAE978C8
:1086900009FB0EFE0CFB08EEA9FB0C9CE644B7F9A7
:1086A00052C88CFB01814FEA414C4FEA484111EB23
:1086B0000909D7F860184CEAD83C4EEB0C0CC1F510
:1086C000801E0EF00048B7F9501848EA5E0810EB1B
:1086D00009004FEACE7EBEEB00000CEBC10168EB57
:1086E000010C40F63548A0FB080108FB0C114FF0C7
:1086F000EBFBB7F95A384FEA613E4FEA503C4CEA7F
:10870000C14C03FB0EF24FEAE3790CFB0929A3FBF2
:108710000C324A4403FB0EFE0CFB02EEA3FB0C3CA6
:10872000B7F95828E6445B0E43EACE1313EB000C6E
:10873000804602FB01F34FEAE27941EB6E6EA2FB49
:10874000082809FB00314144D00C40EA41301CEBC1
:108750000000B7F956384EEBE141000A40EA0160EB
:1087600000EB03100EB1000A306025B104EB840465
:10877000803424122C600120BDE8F8838814002086
:108780000A4B10B5D3F86408D3F86848001BFA28E0
:1087900009D811B1D3F86C08086012B1D3F8703859
:1087A0001360012000E0002010BD00BF88140020ED
:1087B0002DE9F0479846444B53F820400546914632
:1087C000002C7FD02033636004F13E03A36104F5E5
:1087D0009F73E3614FF48073C4E90433236894F812
:1087E0003D00E160A36307F005FB064694F84402F0
:1087F00094F83CA0271D08B14CF098FC94F8450271
:1088000008B14CF093FCD4F840321BB12F4A116BE5
:108810000B43136318F0080F2ED00135EDB21EB1D3
:1088200040F20673F380357218F0100F94F8462268
:108830001CD00221304607F0D9FA94F94712D4F837
:10884000483294F847221B010029DBB235DB20486F
:10885000441802F01F0284F800334909012303FA87
:1088600002F240F821203846BDE8F08718F0200FCA
:1088700014BF12213221DDE719F0020F0CD06B1C5E
:10888000DBB21EB140F20652F280337294F84622F7
:108890000221304607F0AAFA19F0010FCDD0504658
:1088A00007F0A8FA0135EDB218B140F20663C380B3
:1088B000057294F846220221BDE7064902F00F0234
:1088C0008B54D0E72746CEE708DB05080038024086
:1088D00000E100E014ED00E02DE9F74F04463C22F2
:1088E0000021AE4855F073F8AD4A611E10460334BE
:1088F00011F8013F5D1E032D88BF00238C4240F814
:10890000043BF5D1002352F8041B012900F0B38188
:108910000133042BF7D10220FFF756FE0320FFF7A7
:1089200053FE04209F4E9D4CDFF8B882FFF74CFEAB
:108930004FF00F094FF0000A06F15007207B30B3CB
:1089400094F90D5007F056FA28B1052383710023DE
:1089500080F807900372132107F024FA227B00238A
:1089600017F83310914240F0DE8006EBC3035B6DD5
:108970002361182303FB05856B6F23755A1C07239E
:10898000A37501236A67637585F870309A4409F10D
:1089900001095FFA89F9B9F1130F04F10C04CDD183
:1089A000BAF1000F00F0BC807F4CDFF83C924FF032
:1089B0000008237C002B00F0A98060794CF0B6FB06
:1089C00020794CF0B3FBA1680B6823F001030B6026
:1089D00000230B604B608B60CB600B6121234B61EC
:1089E000724B994240F0A5803D2243F8082C0F6855
:1089F000E3682268606927F07E6727F45F3727F411
:108A000070773B4343F40B3343F480730B604B6943
:108A10001425454323F0070302F14C064B614D60DA
:108A20008E60C1F80C900B68614D43F001030B6040
:108A30006968604B0B4043F440336B605368574D9B
:108A4000012823F04073D4BF0021012123F4807357
:108A500043EA012353609168574B0B4043F00203F4
:108A60009360D36A013823F47003C0B243EA005024
:108A70004FFA88F10123D0629C4601914FF01F0EFE
:108A8000697D61B395F90D100198814227D1297C48
:108A9000AE7D5F1C0929FFB240F2C380A1F10A003C
:108AA000D2F80CA000EB40004FF0070B0BFA00FBD4
:108AB0002AEA0B0A06FA00F040EA0A00D060062B08
:108AC00000F2BD80013B506B03EB83030EFA03F60B
:108AD00020EA060001FA03F3034353633B460CF11B
:108AE000010CBCF1050F05F10C05C9D1936843F4E5
:108AF00000739360936843F480739360936843F0CA
:108B000001039360936843F08043936008F1010888
:108B1000B8F1030F04F1180409F1C8097FF449AF53
:108B200003B0BDE8F08F0133102B7FF419AF0023A1
:108B30001EE7224B994204D14FF4746243F8202C73
:108B400055E71F4B994204D14FF4741243F8382C67
:108B50004DE71C4B994204D14FF0746243F8502CFE
:108B600045E7194B994203D1184A43F8642C3EE774
:108B7000174B994203D1174A43F87C2C37E7164B21
:108B8000994203D1154A43F8942C30E7144B99428B
:108B90002CD14FF03D5243F8AC2C28E7FC1C0020B0
:108BA000B81C002008DB05086000002010600240AF
:108BB00000230140E030FCFFFDF7FFC028600240C9
:108BC0004060024058600240706002403D0000205A
:108BD00088600240400F0020A060024000003D205D
:108BE000B860024000000020381D0020274B994249
:108BF0003FF4FAAE264B99429ED0264B9942A3D021
:108C0000254B9942A8D0254B9942ADD0244B99428F
:108C1000B1D0244B9942B5D0234B99427FF4E7AEB3
:108C2000B7E7106901EB410A4FF0070B0BFA0AFB9B
:108C300020EA0B0006FA0AF6304310613FE70C2BDE
:108C40000CD8073B106B03EB83030EFA03F620EA04
:108C5000060001FA03F3034313633FE70D3BD06AB9
:108C600003EB83030EFA03F620EA060001FA03F38E
:108C70000343D36232E70D4B202283F8802893F818
:108C8000082B013283F8082B45E600BF1064024030
:108C9000286402404064024058640240706402400C
:108CA00088640240A0640240B86402408814002036
:108CB0002DE9F347038A8689B6B205460C461E4065
:108CC0004FF0004901F14C0701F1340816B902B028
:108CD000BDE8F087B6FA86F329FA03F2D24391B2DF
:108CE000298216401B3B002C40D0042BEED8DFE835
:108CF00003F039342E280300E368D5F82CA02BB1FB
:108D00009B681BB11FFA8AF1201D9847636A33B133
:108D10009B6823B11FFA8AF104F11C009847E36BAA
:108D20002BB19B681BB11FFA8AF140469847636DCF
:108D3000002BCBD09B68002BC8D01FFA8AF1384695
:108D400003E0E368696B5B68201D9847BEE7636AD0
:108D5000A96B5B6804F11C00F7E7E36BE96B5B68E8
:108D60004046F2E7636D296C5B68E8E7042B06D8A0
:108D7000DFE803F00D0B09070300EB6A0193019B89
:108D8000A4E76B6BFAE7AB6BF8E7EB6BF6E72B6CE2
:108D9000F4E790F84820531C0244DBB280F84830D6
:108DA00082F8341090F849200AB1132B01D94EF003
:108DB0007EB97047002280F849204EF078B970B52E
:108DC0000F4E96F80B3B002BFBD104464518AC42E6
:108DD00001D1002070BDD6F82C3814F8011BF21810
:108DE0000133C3F30A0382F80C1BC6F82C38FFF7D3
:108DF000BDFA0028EBD1012008F00BF9F7E700BF1E
:108E00008814002038B50C461146FFF7EDF948B13B
:108E1000054D002AD5F8643804DD2046FFF7CFFF62
:108E2000D5F8643838BD00BF88140020F0B590F83C
:108E3000CF5590F8CE1590F8D12590F8D03590F810
:108E4000CC7590F8CDC501EB05218DB203EB022363
:108E500090F8D31590F8D22585B002EB012207F0E7
:108E60001F06012192B29BB28E4204468DF8087013
:108E70008DF809C0ADF80A50ADF80C30ADF80E20F1
:108E8000C0F8402180F8111100F00C81022E00F092
:108E90001D81002E40F09B81BCF1090F5ED8DFE8F8
:108EA0001CF0B600F4005D00C8005D0057000A0029
:108EB0005D00A90076002E0A022EADF806200BD028
:108EC000032E25D0012E49D1D0F8EC351B68A078AF
:108ED0000DF10601984709E0D0F8E43580789B6AE7
:108EE0000DF1060198474670C4F8F005BDF806205C
:108EF000002A47D0BDF80E30002B43D09A4228BF3D
:108F00001A46ADF80620014620464DF0D5FF39E05F
:108F1000E9B2052922D8DFE801F003070B0F131788
:108F2000D0F8EC355B68D2E7D0F8EC359B68CEE73B
:108F3000D0F8EC35DB68CAE7D0F8EC351B69C6E73A
:108F4000D0F8EC355B69C2E7D0F8EC359B69BEE739
:108F50001A4303D190F81231032B03D120464DF070
:108F6000FFFE0FE0016905F07F0680F814610B68D1
:108F700065F30A121A430A604DF0B2FF2EB10223C4
:108F800084F81231002005B0F0BD0123F8E7E9B202
:108F9000904D012985F81412E0D890F81231022B77
:108FA0000FD0032BDAD1C1B9022380F81231D0F8E7
:108FB000E43580F810115B68984720464DF090FF2B
:108FC000E0E70029F9D00121032380F8101180F88F
:108FD000123120464DF087FEEFE790F8101101297D
:108FE000EBD0D0F8E4355B68984795F8141284F814
:108FF0001011EEE7012AB1D190F81231022B04D002
:10900000032BABD100F588717EE773497CE790F8BC
:109010001231023B012BA1D86E4B0022C3F81C2257
:10902000D0F8182112B10222C3F81C226B49022287
:109030006AE7012D08D1C0F81851D4F8E43502A927
:109040009B6820469847B8E7022D9BD1DAB2002AE8
:1090500098D102691B0A023B5268032B03D8DFE850
:1090600003F00C0E1012012363F30612594BC3F8E0
:109070002022012384F816319FE70223F4E703231B
:10908000F2E70423F0E70523EEE790F81231023B04
:10909000012B3FF663AF012D7FF474AF0023C0F8BE
:1090A0001831CAE790F81221032A7FF457AFDBB2D8
:1090B000012B3FF653AFD0F8E43502A99B689847DF
:1090C000BDF80E30002B7FF45DAF76E707F0600748
:1090D000202FD9B205D1D0F8E43502A99B68984772
:1090E00050E7BCF1010F31D0BCF1030F1ED0BCF131
:1090F000000F7FF447AF90F81221022A5AD0032ABA
:109100007FF42CAF13F0800F4FF02802314B59D071
:1091100001F07F0102FB010191F81E21002A4FD0CE
:109120000122C3F824222E490222EDE690F81231E2
:10913000022B3FD0032B7FF411AF002D7FF47DAFC6
:109140004A063FF47AAF4DF0DAFD76E790F8122147
:10915000022A2FD0032A7FF401AF002D7FF412AF33
:1091600011F07F003FF429AF5BB2002B4FF02802D3
:10917000B5BF02FB004102FB014101F58E7101F513
:109180005D710022DB0F08708A704B7004EB800069
:10919000C9786BB18269136802396FF3555301299D
:1091A0008CBFC3F30071012161F31C73136044E7AA
:1091B000426DF0E74B063FF4E5AE4DF0A0FDE1E671
:1091C0000022AEE702FB010191F87623A6E707F043
:1091D0008001F2E780250020982700209C270020AE
:1091E000A427002010B5044671BB90F81131032B61
:1091F0001BD1D0F89023D0F87C339A4217D9C1788C
:10920000012908BFD0F88013A2EB030204BFC918DC
:10921000C0F88013934228BF1346C0F890239BB236
:10922000D0F8802300214DF00BFF002010BDD0F8B6
:10923000E4351B6923B190F81221032A00D1984725
:1092400020464DF04DFEF0E7D0F8E4359B69002B49
:10925000EBD090F81221032AE7D19847E5E770B5E3
:109260000A7812F0600406460D462AD0202C2FD131
:10927000CC884B78FCB112060CD51F492246184603
:10928000FFF732F8EA881C4930464DF015FE0024FD
:10929000204670BD194A1360194A0323C2F80C48CE
:1092A00080F81131C0E9E444234602F5016200214F
:1092B0004DF0C6FEEBE7022211441846FFF714F802
:1092C000E6E74B780A2B08D00B2B0BD0062BDFD10F
:1092D00030464DF045FD0224DAE70A4901224DF0FF
:1092E000EBFDD5E78B781BB9074BC3F82842CFE7D6
:1092F0004DF036FDCCE700BF981C00200000002098
:1093000088140020A82700208025002010B52823DD
:1093100003FB0101074AB1F88C1304461046FFF71E
:1093200038F82046034A402301214DF089FE0020F1
:1093300010BD00BFAC270020002310B5194604461D
:1093400040224DF01BFD40228021204600234DF09D
:1093500015FD012384F81231D4F8E835A0785B6854
:109360009847002010BD38B54022044602238121D1
:109370004DF004FD20460223402201214DF0FEFC69
:1093800020460323082282214DF0F8FC084B0222DC
:10939000002583F84B2083F84C50FEF791FF012104
:1093A0002046044A40234DF04BFE284638BD00BFFE
:1093B00000000020AC27002038B50122044640F20E
:1093C0000113A0F84431012511464DF057FE2946FE
:1093D0002046A4F89C5300224DF050FE4FF48173B8
:1093E000A4F86C3120462A4602214DF047FEFEF7D4
:1093F00073FF002038BD38B5254C94F80B2B012A9B
:10940000034633D12348D0F86C221AB984F80B2BC9
:10941000002038BD402AD4F8281819D9403A01F163
:109420004005C0F86C22C4F8285840221A4810FAA7
:1094300081F1C3E9541140F201100021C3E9562122
:10944000A3F8440103F5A27118464DF060FDDFE773
:1094500002EB0105C4F828584FF00005C0F86C5223
:109460000ABF022092B284F80B0BDFE7022ACFD1A9
:10947000002540F20112C0E95455C0E95655A0F844
:10948000442100F5A2714DF042FD84F80B5BBFE76B
:109490008814002080250020941F002038B52A4C15
:1094A000D4F870320F2B03F1010203D0C4F87022FC
:1094B000002038BD254A0023C4F8703292F80B3BD7
:1094C000002BF5D1D2F82818B1F5006F08BFC2F80B
:1094D0002838D2F82818D2F82C38994203D1002322
:1094E00082F80B3BE4E78CBFC1F500635B1A402BAD
:1094F0001BD9403B01F14005C4F86C32012382F8CE
:109500000B3BC2F828584023114A12FA81F140F26D
:109510000112A0F844210022C0E95411C0E95632DA
:1095200000F5A2714DF0F3FCC2E701EB0305C2F8B0
:1095300028584FF00005C4F86C520EBF02240124D5
:109540009BB282F80B4BDFE78025002088140020B7
:10955000941F002008B502484BF0C9FC014808BD23
:1095600097670608F427002008B502484BF0BFFCB7
:10957000014808BDAA670608F427002008B502487C
:109580004BF0B5FC014808BDAF670608F427002082
:1095900008B502484BF0ABFC014808BDB9670608A6
:1095A000F427002008B502484BF0A1FC014808BD93
:1095B000C4670608F4270020024BD3F8740307F0B1
:1095C000ABBB00BF802500200E49D1F8883043F4A2
:1095D0007003C1F888300C4B1A68002042F0010279
:1095E0001A6098601A6822F0847222F480321A603D
:1095F000064A5A601A6822F480221A60D860044B26
:109600008B60704700ED00E000380240103000240D
:109610000000000870472DE9F0414769064688467A
:10962000002F59D10368C3F30D0515B3D8F8008096
:109630003568FEF787FD092840F08780444C236990
:1096400023F440732361236943F400732361236986
:1096500043F001032361C5F80080FEF773FD236921
:10966000092823F0010323616FD133680433336089
:1096700032E0384A934229D302F58042934224D300
:1096800002F5804293422AD3334A934229D902F504
:109690008032934227D902F50032934225D902F550
:1096A0000032934223D902F50032934221D902F5C8
:1096B000003293421FD902F5802293421DD9B3F1A3
:1096C000016F1CD3052007F0F1FC0825FEF73AFDD9
:1096D000092816D04FF0FF373846BDE8F081102535
:1096E000F4E71825F2E72025F0E72825EEE73025F6
:1096F000ECE73825EAE74025E8E74825E6E758257E
:10970000E4E7134C236923F440732361236943F492
:1097100000732361236923F0F803236123691D4348
:1097200045F002052561236943F480332361FEF788
:1097300009FD236923F0020323612369092823F02B
:10974000F80323613FF472AFC4E76FF00107C3E78A
:10975000003C024000400008FFFF00080148FEF7FF
:109760008CBC00BFAC0000200148FEF786BC00BFE7
:10977000F802002038B503681B681C68254B03F508
:10978000A86393ED007A07EE902AB8EE477AF8EED8
:10979000677A013987EE270A8DB2DFED1F7A30EE46
:1097A000270A50F0E1FF1D4A23880138944280B215
:1097B0009BB212D002F5806294420ED0B4F1804F79
:1097C0000BD0A2F58032944207D002F58062944219
:1097D00003D002F58062944202D123F070039BB261
:1097E0000F4A944206D002F5806294421CBF23F4D3
:1097F00040739BB22380094BE5629C42208503D0D5
:1098000003F580639C4201D1002323860123A382B8
:1098100038BD00BF000000200AD7233C00000140F3
:10982000001000402DE9F0434568A87910F00403CA
:1098300000F002020BD000201746804604240646A2
:109840006B79032B49D8DFE803F0094A89C99046B0
:109850004FF480701F461C460126F1E72D682B8CC3
:1098600023F001031B041B0C2B84B5F820C0B5F8B2
:1098700004902B8B23F073031B041B0C43F0600E2E
:109880002CF0020C6E4B4FEA0C4C4FEA1C4C48EA91
:1098900006069D421FFA89F94CEA060C03D003F52F
:1098A00080639D420AD14FF6F3730CEA03033B43F6
:1098B00029F4407943EA040C40EA0909A5F8049028
:1098C000A5F818E06963A5F820C02B8B23F00803E6
:1098D0001B041B0C43F008032B83BDE8F0832D68A9
:1098E0002B8C23F010031B041B0C2B842A8CB5F843
:1098F00004E0B5F818C0524B2CF4E64C22F02002DC
:109900004FEA0C4C12044FEA1C4C120C48EA0606B3
:109910009D421FFA8EFE4CF4C04C42EA061203D060
:1099200003F580639D420BD122F0800242EA0712C8
:1099300022F040022EF4406E42EA04124EEA800EFB
:10994000A5F804E0A5F818C0A9632A842B8B23F49A
:1099500000631B041B0C43F40063BDE72D682B8CD4
:1099600023F480731B041B0C2B842A8CB5F804E0B1
:10997000B5F81CC022F400732CF0730C304A4FEA87
:109980000C4C1B044FEA1C4C1B0C48EA0606954283
:109990001FFA8EFE4CF0600C43EA062303D002F55A
:1099A000806295420BD123F4006343EA072323F43A
:1099B00080632EF4405E43EA04234EEA001EA5F8BD
:1099C00004E0A5F81CC0E9632B84AB8B23F00803EB
:1099D0001B041B0C43F00803AB837EE72C68238C2D
:1099E00023F480531B041B0C2384258CA288A38B97
:1099F00025F400552D0448EA06062D0C23F4E64311
:109A000045EA06350E4E1B041B0CB44292B243F4D9
:109A1000C04303D006F58066B44203D122F48042ED
:109A200042EA8012A280A38321642584A38B23F4BD
:109A300000631B041B0C43F40063A3834DE700BFCA
:109A400000000140024B0348D3F87813FFF730B908
:109A5000802500200000014010B5064C0648D4F8CF
:109A60007813FFF725F9D4F898130448BDE810409F
:109A7000FFF71EB980250020000001400040014092
:109A800010B5064C0648D4F87813FFF711F9D4F84E
:109A90009C130448BDE81040FFF70AB98025002058
:109AA000000001400044014010B5064C0648D4F8BF
:109AB0007813FFF7FDF8D4F8A0130448BDE8104070
:109AC000FFF7F6B880250020000001400048014063
:109AD000034B4FF08040D3F87C13FFF7E9B800BF89
:109AE00080250020024B0348D3F88013FFF7E0B82D
:109AF0008025002000040040024B0348D3F8841363
:109B0000FFF7D6B88025002000080040024B03482C
:109B1000D3F88813FFF7CCB880250020000C004054
:109B20000348D0F8503513B100F24450184770473D
:109B3000000000200348D0F8703513B100F26450E3
:109B400018477047000000200348D0F8903513B143
:109B500000F2845018477047000000200348D0F8F6
:109B6000B03513B100F2A450184770470000002030
:109B70000348D0F8D03513B100F2C45018477047ED
:109B8000000000200348D0F8F03513B100F2E45093
:109B900018477047000000200348D0F8103613B172
:109BA00000F2046018477047000000200348D0F816
:109BB000303613B100F224601847704700000020CF
:109BC0000348D0F8503613B100F24460184770478C
:109BD000000000200348D0F8703613B100F2646032
:109BE00018477047000000200348D0F8903613B1A2
:109BF00000F2846018477047000000200348D0F846
:109C0000B03613B100F2A46018477047000000207E
:109C10000348D0F8D03613B100F2C460184770473B
:109C2000000000200348D0F8F03613B100F2E460E1
:109C300018477047000000200348D0F8103713B1D0
:109C400000F2047018477047000000200348D0F865
:109C5000303713B100F2247018477047000000201D
:109C60002DE9F0410022012603250B6806FA02FCCB
:109C70003CEA030331D10368540005FA04FE23EAE9
:109C80000E0303600B79D0F800806FEA0E0703FA29
:109C900004FE013B4EEA080E012BC0F800E011D88B
:109CA00083681F4087604B798768A3403B4383608C
:109CB000436823EA0C0343608B79476893409BB267
:109CC0003B434360C36805FA04F723EA0703C36014
:109CD000CB79C768A3403B43C3600132102AC4D18B
:109CE000BDE8F081F7B51C2006F084F81121044688
:109CF00006F058F8204606F050F8C82007F089F919
:109D0000204606F045F81B2006F074F820B14FF409
:109D10008773C3800023037224B140F20E23E380D3
:109D200000232372C74B502283F843230822C3F831
:109D30008820BFF34F8FBFF36F8FC34CC34D236B8E
:109D400043F0010323634FF4C05040F20233CDE9E6
:109D50000003BF486946FFF783FF436A23F470435B
:109D60004362436A43F420434362436A23F470230B
:109D70004362436A43F420234362636C43F48043A9
:109D80006364636B43F080036363B24BB24C0120A6
:109D90005861B24BC4F8943903F12C024833C4F82B
:109DA0009C39AF4BC4F89829C4E9EC53022384F8DA
:109DB000B8334FF0A043C4F8BC3303F50063C4F8D4
:109DC000C03303F58073C4F8C83303F50073C4F8D7
:109DD0000434A3F5F073C4F8CC3303F50073C4F86E
:109DE0000834A3F5F073C4F8D03303F50073C4F856
:109DF0000C34A3F5F073C4F8D43303F50073C4F83E
:109E00001034A3F5EC63C4F8C4334033C4F87C3495
:109E1000C03384F8BB03C4F840342033C4F844345E
:109E20002033C4F848342033C4F84C342033C4F809
:109E300050342033C4F854342033C4F85834203319
:109E4000C4F85C3403F52263C4F8803403F580530E
:109E5000C4F8843403F58053C4F8883403F5805380
:109E6000C4F88C344FF05023C4F8903403F5805379
:109E7000C4F8943403F58053C4F8983403F5805340
:109E8000C4F89C34A3F5E4430022C4F8BC3404F5C0
:109E90006C7384F8C20484F8C4241946154640261D
:109EA00081F81C21A1F822210132042AC1E9496567
:109EB00081F81D0181F81F51C1F8305101F12801CD
:109EC000EED100221146402083F87423A3F87A23B0
:109ED0000132042AC3E9DF0183F8751383F877138D
:109EE000C3F8881303F12803EED14FF0A0430025F7
:109EF0009A6822F001029A60DA6842F04002DA6061
:109F00004BF084FA94F8B93394F8B3235B1B18BF71
:109F100001231B0143F0210363F31745D4F8BC333D
:109F2000012A9D6307D19A6822F03E0141F02A017F
:109F300061F307029A60DA68C2F3076121F06001F9
:109F400041F0400161F31F62DA60D4F8BC240020C4
:109F50001060D4F8C023116860F3CC21116094F82C
:109F6000BB13012912D1116841F003011160802255
:109F70005A6202F580029A6202F14012C3F804218B
:109F80004FF4A072C3F80821C3F80C2110204BF045
:109F90001FFA00230093009B43F010030093D4F8B2
:109FA000BC33009A1A612F4A19690091013A02D014
:109FB0000099C906F8D4D4F8C01394F8B1532A4EC6
:109FC00000224FF0FF300A6117464A614FF0FF0C44
:109FD0008861CA61AA4251D30022244E17464FF02D
:109FE000FF0C95425CD80A6942F480720A6194F8C9
:109FF000B323012A04BF1E480863002199614FF072
:10A00000FF306FF080415961586059611949996179
:10A01000B2FA82F21849520941EA021299690A43D6
:10A020009A619A6842F001029A60D4F898391B68E4
:10A030009847044B502283F8432308229A6003B0C8
:10A04000F0BD00BF00E100E000380240080401005C
:10A0500000000240003C0140802500204407002011
:10A0600040004001410D03004829002084290020C0
:10A07000030181000008008008383C0056F8040BFA
:10A08000D0F800E0BEF1000FACBF4FF0000E4FF073
:10A09000904EC0F800E001320761C0F808C099E7AF
:10A0A00056F8040BD0F800E0BEF1000FACBF4FF043
:10A0B000000E4FF0904EC0F800E001320761C0F88A
:10A0C00008C08EE7204A936803F00C03042B10B5F8
:10A0D00020D0082B20D01D4B1B4C0360A3681C4ACA
:10A0E000C3F30313134493F8A8170368CB404360EA
:10A0F000A168C1F38221114491F8A81723FA01F154
:10A100008160A168C1F342310A4492F8A827D34084
:10A11000C36010BD0F4BDFE75368516813F4800F25
:10A1200001F03F01536814BF0A4A084AB2FBF1F13B
:10A13000054A5268C2F30142C3F3881301324B430C
:10A140005200B3FBF2F3C7E7003802400024F400EA
:10A150000000002040787D01F0B5446B8668A3893B
:10A1600023F400531B041B0CA3818279278A054624
:10A17000BFB2100312F0040F4FEA022100F40050A6
:10A180006A7927F4405740EA0700208214BF4FF451
:10A19000805C4FF0000C12F0010F0CBF0023042371
:10A1A0009207A28922F4B05201F4806122F00C02DD
:10A1B00048BF43F0080341EA0C0112040B43120CA0
:10A1C0001A43A281A38A23F440731B041B0C85B09D
:10A1D000A3826846FFF776FF214B9C4203D003F52C
:10A1E00080639C423AD1039BA2891921170401FB89
:10A1F00003F34FF064014CBF7600B600B3FBF6F3F7
:10A20000B3FBF1F001FB10330201A08900044BBF46
:10A21000DB001B01323332334BBFB3FBF1F3B3FB33
:10A22000F1F303F0070303F00F0313439BB2238101
:10A230006A6BAB7913F0080F938A0BBF23F0080306
:10A240009BB21B0443F0080308BF1B0C9382938945
:10A250009BB243F40053938105B0F0BD029BC3E76A
:10A26000001001402DE9F8431E46204B9DF8205078
:10A270009DF824709842894690462CD13B462A4648
:10A2800031460020FEF794FA04460020C4E9070096
:10A29000C4E90900C4E90B986571A660A77120465E
:10A2A000FFF75AFFEA0707D5636B4FF6DF721A8094
:10A2B000DA6842F02002DA60626BAB0742BFD36813
:10A2C00043F08003D36093899BB243F4005393819E
:10A2D0002046BDE8F883064B984204D13B462A4607
:10A2E00031460120CEE70024F2E700BF0010014014
:10A2F0000044004081602FE741712DE72DE9F043D4
:10A30000654F07EBC00985B005464FEAC00899F8CC
:10A31000BC0705F06FFD064699F8BD0705F06AFD1C
:10A32000044699F8BE074AF001FF6B1CDBB21EB170
:10A3300040F60B12F28033721CB140F60B22E28021
:10A34000237204223A21304605F050FD20460422B3
:10A350003A2105F04BFD07EB0803D3F8B8474F4B04
:10A360009C4263D103F5F2331A6A42F400121A6276
:10A370001A6A22F400121A62474497F8BF37022B78
:10A380006ED0032B6ED0464E464A012B08BF1646B0
:10A39000A78827F03F0768463F04FFF793FE3F0C6E
:10A3A000029A414BB2FBF3F398B20743A78021888E
:10A3B00021F001010904090C21803C498E4253D14E
:10A3C0003B4BB2FBF3F2013092B2042A80B238BFA9
:10A3D00004222084A28323889BB243F001032380BC
:10A3E000238823F4816323F002031B041B0C43F432
:10A3F000806323804FF480432381238823F08003EC
:10A400001B041B0C238023889BB243F00103238091
:10A41000284B03EB4513012283F8A929002283F876
:10A42000A85983F8AA2905B0BDE8F083224B9C42C5
:10A4300009D103F5F0331A6A42F480021A621A6AEB
:10A4400022F4800297E71D4B9C4295D103F5EE3331
:10A450001A6A42F400021A621A6A22F400028AE7B7
:10A46000124E95E7124E93E706EB4606B2FBF6F264
:10A4700091B2C2F30B020AB941F0010141F400426A
:10A480004FF496714B434FF47A71B3FBF1F3013300
:10A490009BB223849EE700BF0000002000540040D0
:10A4A000801A060000350C0040420F00A086010013
:10A4B000400D03008025002000580040005C004053
:10A4C0002DE9F047BB4E440106EB401906F062FD52
:10A4D00099F9A829B84B8846D10003EBC202074678
:10A4E000D2F8B85799F8AA29013A142A00F28580BF
:10A4F000DFE812F07B008B00A400BD00CB00D5008C
:10A50000E100FA00080111011F0171019001BA0177
:10A510002B023F0251025D027102940215005F1886
:10A520004FF0090A97F8BC0705F064FC054697F858
:10A53000BD0705F05FFCB6F8083A01339BB2074649
:10A540002846A6F8083A05F023FC384605F020FC1A
:10A550001121284605F026FC1121384605F022FC81
:10A560004FF0650803E00520002106F041FD25B10C
:10A570002B68AA881B691A4202D1B8F10108F2D1EE
:10A58000284605F00AFC0021052006F031FD28468A
:10A5900005F0FEFB0520002106F02AFDBAF1010AB4
:10A5A000DED1284605F0F9FB0021052006F020FD4C
:10A5B000384605F0F2FB0021052006F019FD28467B
:10A5C00005F0E6FB0520002106F012FD384605F0F7
:10A5D000DFFB331993F9A809431C01D0FFF78EFE66
:10A5E0003319002283F8AA2907E02B8813F400739B
:10A5F00040F0EC81321982F8AA39331993F8AA395C
:10A60000002B7FF463AFBDE8F0872B8823F4006351
:10A610001B041B0C2B802B889BB243F480632B8084
:10A620002B889BB243F480732B803319032283F869
:10A63000AA29624B1A191F51C2F8048060492846A2
:10A64000FDF791FD002800F0C181331993F8BA2974
:10A650005AB993F8BB29FF2A04D193F8B8290AB153
:10A660000A22BFE733190422BCE70F22BAE73219E6
:10A6700092F8B93903F0FE032B82052382F8AA3938
:10A680004E4B1A191F51C2F804804E492846FDF757
:10A690006AFD002800F0928133190622A2E73319DF
:10A6A00093F8BB292A82072283F8AA29434B1A1957
:10A6B0001F51C2F8048044492846FDF754FD002884
:10A6C00000F07C813219D2F8BC395BB92B889BB27F
:10A6D00043F400732B80394B19191F51C1F80480C2
:10A6E000012388E7082386E72B889BB243F4807315
:10A6F0002B803319092283F8AA29304B1A191F51CC
:10A70000C2F804802E492846FDF72DFD002800F0F0
:10A710005D813319A4E7321992F8B93943F0010386
:10A720002B820B2382F8AA39244B1A191F51C2F825
:10A73000048026492846FDF716FD002800F03E81DA
:10A740003219D2F8BC39012B1CD12B8823F4806339
:10A750001B041B0C2B80EFF31181102383F3128851
:10A760002B8B2B889BB243F400732B80CBB283F3EB
:10A7700011880C2382F8AA39104B1A191F51C2F8FC
:10A7800004803AE7022B23D12B889BB243F4006369
:10A790002B80EFF31181102383F312882B8B2B88EE
:10A7A00023F480631B041B0C2B80CBB283F3118832
:10A7B0000D23DFE78025002000000020302F00203F
:10A7C000010003008200070084000700020003006C
:10A7D0002B8B0E23CEE799492846FDF7CFFC984AEC
:10A7E000002800F0A2803319D3F8C019481CC3F820
:10A7F000C009288A0870D3F8BC1901391019C3F8A8
:10A80000BC190121175183F8C419C0F8048083F8DA
:10A81000AA19F2E68B492846FDF7B0FC884A0028C1
:10A8200000F08380EFF31181102383F312882B88CB
:10A830009BB243F400732B803319C9B2D3F8C0091B
:10A8400000F1010CC3F8C0C9B5F810C080F800C011
:10A8500081F31188D3F8C019481CC3F8C009288AAD
:10A8600008706FF00101C9E776492846FDF786FCBC
:10A87000734A002859D03319D3F8BC19032930D1B1
:10A88000298821F480610904090C2980EFF31180E3
:10A89000102181F31288D3F8C01901F1010CC3F81B
:10A8A000C0C9B5F810C081F800C0298889B241F448
:10A8B00000712980C1B281F31188D3F8C019481CF6
:10A8C000C3F8C009288A0870D3F8BC190239C3F844
:10A8D000BC190C2183F8AA1913191751C3F8048065
:10A8E0008BE6022914D8298821F480610904090C17
:10A8F0002980298889B241F400712980298A175159
:10A90000002183F8C4191119C1F80480012269E6F5
:10A91000D3F8C019481CC3F8C009288A0870D3F8B6
:10A92000BC190139C3F8BC19D6E713191059596875
:10A93000381A42F2107368EB0108984278F100036C
:10A94000FFF45BAE331915224CE62B8823F48063A9
:10A9500032191B041B0C2B8092F8B93903F0FE034B
:10A960002B82102382F8AA39354B1A191F51C2F8CD
:10A97000048035492846FDF7F6FBF8B1331993F802
:10A98000BB29FF2A04D193F8B8290AB1132229E67A
:10A990003319112226E6331993F8BB292A82122291
:10A9A00083F8AA29264B1A191F51C2F80480274997
:10A9B0002846FDF7D8FB08B13319E7E724492846B4
:10A9C000FDF7DCFB10B1331914220BE61C4B1A19EE
:10A9D00018595168ACE733191949D3F8BC2982B129
:10A9E000D3F8C009013A10F801CBA5F810C0C3F89C
:10A9F000BC290A190F51C3F8C009C2F804801222F9
:10AA0000F0E52A8892B242F400722A800A190F51A6
:10AA1000C2F80480012283F8C429E3E52B889BB2A5
:10AA200043F400732B804FF6FF33AB82044B1A19AB
:10AA30001F51C2F80480331968E700BF40000010BE
:10AA4000302F00200400001082000700840007005F
:10AA50000004001038B5114C04EB401494F8A959C7
:10AA6000D5B1C4F8BC39049BC4F8C039002384F8BC
:10AA7000C4390223490084F8BB2984F8AA39012289
:10AA80009DF8143084F8B91984F8BA2984F8B839D3
:10AA9000FFF716FD94F8C459284638BD80250020DC
:10AAA00038B5114C04EB401494F8A959CDB1C4F851
:10AAB000BC39049BC4F8C0390223490084F8BB297F
:10AAC00084F8AA3900229DF8143084F8B91984F862
:10AAD000BA2984F8C42984F8B839FFF7F1FC94F84E
:10AAE000C459284638BD00BF80250020F0B587B086
:10AAF000002300930193744B1A6842F480321A6069
:10AB00001A6802F400320192009A01320092019A0E
:10AB10001AB9009AB2F5A04FF2D11B6813F40033B2
:10AB200018BF01230193019B012B40F0B180664BBC
:10AB300066491A6C42F080521A640A6842F4404234
:10AB40000A609A689A609A689A609A6842F4805299
:10AB50009A605F4A5A601A6842F080721A601A68F6
:10AB60009201FCD55B4A40F2027111609A6822F0B2
:10AB700003029A609A6842F002029A60524A93680D
:10AB800003F00C03082BFAD19368534C03F00C0329
:10AB9000042B7FD0082B7FD0504BC4F840354A4B54
:10ABA0004F4D9A684F48C2F303122244002692F890
:10ABB000D017D4F84025CA40C4F840254A4AEA6074
:10ABC0005A6F4A4AAA605A6B22F080025A635A6F3F
:10ABD00042F080725A67196B454A0A431A635A6BEE
:10ABE0005A631A6C42F0875242F4F61242F41F6222
:10ABF00042F00F021A64596C3E4A0A435A6402A991
:10AC000048F2FF73CDE902364FF6FF77FFF728F8D9
:10AC100000F580600297FFF723F800F58060029747
:10AC2000FFF71EF800F58060FFF71AF800F5806066
:10AC3000FFF716F80846FFF745FA029B2E4AB3FBCA
:10AC4000F2F32E4AC2F80C3AD5F8FC302C4A43F005
:10AC50008073C5F8FC302B4BC3F8B02F5E601A68C8
:10AC600042F001021A60D4F840354FF47A72B3FB17
:10AC7000F2F3013BB3F1807F08D24FF0E022536141
:10AC8000F02385F8233007239661136107B0F0BDE8
:10AC900000BFFDE71C4B80E75368516813F4800F39
:10ACA00001F03F01536814BF174A0C4AB2FBF1F19F
:10ACB000054A5268C2F30142C3F3881301324B4381
:10ACC0005200B3FBF2F368E7003802400070004026
:10ACD00019304004003C0240000000200024F40031
:10ACE00000ED00E0000002400003FA05000000084B
:10ACF0001F9067003357070040420F008025002057
:10AD000055CEACC5001000E040787D0182B0002334
:10AD10000193054B0193019B03EB80000190019B84
:10AD2000196002B0704700BF50280040436D064ACA
:10AD30001A61C278012A06D100F2CC5058611A6813
:10AD40004FF080221A6070471800086038B504463A
:10AD500000296FD190F81131022B2AD1D0F8382177
:10AD6000D0F824118A4232D9C378012B04BFD0F81D
:10AD700028315B18A2EB010208BFC0F828314FF45C
:10AD80008071D0F82831C0F83821002592B2A0F89F
:10AD90001C11C0F82C31C0F83451C0F8302100F536
:10ADA0008E714CF037F82B462A46294620464CF047
:10ADB00047F994F81631012B07D1244A2369D2F8B8
:10ADC00020225A60002384F81631002038BDD0F8C4
:10ADD0003C31B3FBF1F501FB1535A5B9994212D809
:10ADE000D0F8402193420ED24FF48073C0E94A5507
:10ADF000C0E94C55A0F81C3100F58E714CF00AF8F2
:10AE0000C4F84051CFE7D4F8E435DB682BB194F8AF
:10AE10001221032A01D120469847052384F81131D5
:10AE2000002320461A4619464CF00AF92046FFF73F
:10AE30007DFFBEE7D0F8E4355B69002BC5D090F804
:10AE40001221032AC1D19847BFE700BF8025002007
:10AE500070477047704710B5114C94F8BA33CBB1B6
:10AE60004FF0E022D2F8103D23F00603C2F8103D67
:10AE7000FEF7AAFB94F8BA3363B1D4F8C0339B68E9
:10AE8000DB0707D5D4F8BC24136823F0030161F372
:10AE900007031360034B4FF480225A6110BD00BFBB
:10AEA00080250020003C01402DE9F04F964CD4F85D
:10AEB000BC335A69D0078DB000F1A3825A699B69EF
:10AEC0001340019300F09D82C3F307430293019B5B
:10AED000190311D5D4F8C033DFF838929E69DB69C5
:10AEE00004F56C7B1E40360C04F204474FF000085A
:10AEF000DA46002E40F01481029B5A070FD5D4F891
:10AF0000C033824E9F69DB691F40BFB2A6F11805AE
:10AF10004FF00009A6F57278002F40F04681019BA2
:10AF20009DF80470980741BF774BD3F8BC330222D9
:10AF30005A61019B002B1BDA734D95F8BA333BB174
:10AF4000D5F8BC24136823F0030161F307031360F1
:10AF5000D5F8C0236E48536823F0010353606D4B4E
:10AF6000D3F8F8379847D5F8BC334FF000425A6110
:10AF7000019B1905C3F3072631D5634D00238DF8D6
:10AF80001F3095F8C2348DF81F30624B05F56C7098
:10AF9000D3F8F4379847D5F8BC23D5F8C0334FF42D
:10AFA00000619B68516195F8BA23C2B1DA0716D5E2
:10AFB00095F8C534012B12D19DF81F30032B0ED10B
:10AFC000D5F8BC341A6842F001021A601A6842F0DF
:10AFD00003021A60504A136943F0060313613B07EA
:10AFE0000AD5494D4B4B05F56C70D3F8EC379847B3
:10AFF000D5F8BC3308225A61FD0615D5424BD3F86B
:10B00000BC03826922F010028261026AC2F34341EA
:10B01000022902F00F0500F08581062900F0A981C0
:10B02000836943F010038361F00635D5364DD5F8BA
:10B03000C0235368002723F00103536038464AF0C9
:10B04000C7F9B84695F8B1033B4605F57275FF217F
:10B050008342C0F09C81D4F8C0332D484FF0FF32BA
:10B060009A614FF00112DA610B2262F3070762F373
:10B0700007085F61C3F810801A686FF30A121A603C
:10B08000FFF754FED4F8BC3321484FF480525A6184
:10B09000204BD3F8F0379847B10640F194811A4C11
:10B0A000D4F8C033D4F8C80399680268C1F34101E9
:10B0B000022906BF032161F30A026FF30A0202604C
:10B0C0005A6842F480725A6008A8FEF7FBFFD4F871
:10B0D000BC13D4F8C003CB68099A6FF38D23CB60FF
:10B0E00085680E48C5F34105284490F8D000032830
:10B0F00040F05481002284F8B2234FF40072A4F887
:10B10000B423092259E100BF8025002048290020EE
:10B11000302900200000002000ED00E008DB0508D9
:10B12000F2073BD55FFA88F104EB8103D3F80434CE
:10B130009D68D4F8C0335B691D40EB0720D594F8B7
:10B14000B3033B680125A8429D6007D11869DBF86D
:10B150007C33C0F312001B1ACBF88C33D9F8E037DC
:10B160005046984794F8B333012B09D1B8F1000F3A
:10B1700006D194F8C134052B02D15046FFF7D6FD15
:10B18000A80742BF3B6802259D60290706D5D9F86C
:10B19000E837504698473B6808229A6008F1010852
:10B1A000760804370BF1280BA3E6FB0777D5D8F810
:10B1B000C0335FFA89FA1969586B08EB8A0220FAE2
:10B1C0000AFBD2F8C8234FEACB1B92685FFA8BFBCD
:10B1D0004BEA010B0BEA020B1BF0010F1ED05A6B5E
:10B1E000A8484FF0010B0BFA09F122EA01025A6359
:10B1F0003368C3F808B0A44B5146D3F8E4379847F6
:10B2000098F8B3335B4509D1B9F1000F06D198F82E
:10B21000C134042B02D19B48FFF788FD1BF0080FB7
:10B220001EBF33684FF0080BC3F808B01BF0100FB7
:10B230001EBF33684FF0100BC3F808B01BF0400F6F
:10B240001EBF33684FF0400BC3F808B01BF0020F6D
:10B250001EBF33684FF0020BC3F808B01BF0800F1D
:10B260001DD0D5E94C329B1AD5F82421D6F800E040
:10B2700098F8B3B3DEF81800934228BF134603339F
:10B28000D8F8C02303920AF1320A9B0808EB8A0A15
:10B2900080B2984203D9D5E94C03984205D809F108
:10B2A00001097F080436283536E6C01AD5F824315E
:10B2B000984228BF1846C31C9B08BBF1000F1CD046
:10B2C000D5F82811D5F834210144C5F82811D5F84E
:10B2D000301102448A42DEF81800C5F83421D7D173
:10B2E000039A95F81C11526B4FF0010C0CFA01F106
:10B2F00022EA010203994A63CAE7D5F82821049299
:10B3000082B2DAF8B813033292108C46059259468D
:10B31000059A8A42D4D0049A52F82120CCF8002011
:10B320000131F5E747F6F07111423FF479AE28217B
:10B3300001FB0531C2F30A12D71CD3F880E4D1F81F
:10B3400030C7BF1000218F420DD1282101FB0533EA
:10B35000D3F830171144C3F83017D3F83C170A4418
:10B36000C3F83C275CE6DEF800804CF82180013110
:10B37000E9E7D3F880140F68C3F87C790968C3F84B
:10B380008019282101FB0533C2F30A12E5E755F8BD
:10B39000042B9160AA6B0133916059E6012084F877
:10B3A000B2034020A4F8B403A0F56400374CA0F524
:10B3B00062401044A04227D80E2262F38D23CB6056
:10B3C0004FF400534B61029BDA060BD5304C2E4BE9
:10B3D00004F56C70D3F8FC379847D4F8BC334FF4BD
:10B3E00080125A61029B9B060BD5294C264B04F513
:10B3F0006C70D3F800389847D4F8BC334FF400127F
:10B400005A610DB0BDE8F08F224CA2F57400A0F592
:10B410001050A04201D80D22CFE71F481F4C104406
:10B42000A04201D20C22C8E71D4CA2F18C70A0F5FD
:10B430004340A04201D80B22BFE71A481A4C1044DF
:10B44000A04201D20A22B8E71848194C1044A04281
:10B45000FFF457AE174CA2F1B770A0F55850A042B8
:10B4600001D20822A9E71448144C1044A04201D28A
:10B470000722A2E712481044124A904234BF062223
:10B4800005229AE730290020000000203F420F00EB
:10B4900080250020DFC810002013FBFE20D61300FB
:10B4A000FF69180000D3CEFE40771B00C05BB3FEDF
:10B4B000C091210040AC2700C01D6AFE40E133006E
:10B4C000803C36FEE09C41004A09012301F01F0147
:10B4D00003FA01F150F822300B4340F82230704754
:10B4E0004A09012301F01F0103FA01F150F822304B
:10B4F000194214BF01200020704710B50A4441F2E0
:10B5000021048A4200D110BD11F8013B80EA0320DA
:10B51000082310F4004F4FEA400018BF6040013B81
:10B5200080B2F6D1EDE74840082310F0800F4FEAD3
:10B53000400018BF80F0D500013BC0B2F5D1704784
:10B5400010B50A440C46944200D110BD14F8011BFA
:10B55000FFF7E9FFF7E738B50A460568044600201B
:10B56000AA4203D36B1C2360287038BD12F8011B5C
:10B57000FFF7D9FFF4E700BF82B08DED010A019813
:10B5800002B07047C31783EA400070479FED087A06
:10B59000C0ED020AC7EE007A0023036030EEA77AFE
:10B5A000C0ED017AC0EE877AC0ED037A704700BF24
:10B5B00083F9223E80ED010A704700BF90ED017AC9
:10B5C000D0ED007AC0ED020A30EE877AC0EE876ACD
:10B5D00030EE677AE6EE877AB0EE670AC0ED007A61
:10B5E000704700BF80ED000A704700BF9FED047AEE
:10B5F000C7EE007A77EEA07A80EEA70A704700BF08
:10B600004E2DA63D002303604360836080ED030A56
:10B61000704700BF80ED030A704700BFF5EEC00A17
:10B62000F1EE10FA06DCF0EE407A80ED000AB0EEA2
:10B63000670A704760EE810A90ED007A77EE607AD3
:10B64000F4EEC07AF1EE10FA0ADC77EE200AF4EE9E
:10B65000C00AF1EE10FA8CBFF0EE407AF0EE607A9C
:10B66000C0ED007AB0EE670A704700BFB4EEE00AA2
:10B67000F1EE10FA07D4B4EEC10AF1EE10FA88BF69
:10B68000B0EE410A7047B0EE600A7047874BB3FBDB
:10B69000F2F399420DD300234FF07E5202604360D3
:10B6A0008360C36003610023836143610362C361FC
:10B6B000704707EE902ADFED7E6AB8EE677A07EEF4
:10B6C000901A27EE267AF8EE677A27EE277AFDEEB3
:10B6D000C77A17EE903A2033402B00F2D880DFED86
:10B6E000757AB4EEE77AF1EE10FAF0EE477A0CDDF7
:10B6F000DFED715A9FED716AF0EE676AF4EEC66A8B
:10B70000F1EE10FA77EEE57AF6DCDFED6D6AF4EE35
:10B71000E67AF1EE10FA0CD5DFED675A9FED696A13
:10B72000F0EE676AF4EEC66AF1EE10FA77EEA57AEB
:10B73000F6D4DFED656AF4EEE67AF1EE10FA00F386
:10B740009C80DFED626AF4EEE67AF1EE10FA03D542
:10B75000DFED5B6A76EEE77A27EEA76ADFED5C5AEB
:10B76000DFED5C6A9FED5C5ADFED5C4AE6EE256A30
:10B77000DFED5B5AA6EE265A27EE864AE6EE055A1C
:10B78000F7EE006AE4EE257AF0EE665AE7EEA45A88
:10B79000E7EEE46A86EEA54ADFED4B6A77EE267A9D
:10B7A000BDEEE76A16EE103A2033402B68D8B4EEAF
:10B7B000E67AF1EE10FA0CDD9FED3F6ADFED3F6AAD
:10B7C000B0EE677AB4EEE67AF1EE10FA77EEC67A6A
:10B7D000F6DC9FED3B7AF4EEC77AF1EE10FA0CD569
:10B7E0009FED356ADFED376AB0EE677AB4EEE67A40
:10B7F000F1EE10FA77EE867AF6D49FED337AF4EE16
:10B80000C77AF1EE10FA47DD9FED2A7A77EE677A74
:10B8100067EEA76A9FED2E6A9FED2E7ADFED2E4A26
:10B820009FED2F5AA6EE867A27EEA63AE6EE874AD5
:10B83000B7EE006AA6EEA45AB6EE007AE3EE057AF9
:10B84000F8EE003A36EE676A67EEA37A26EE077ADC
:10B85000B7EE005AC5EE256A80ED044A26EE877AD7
:10B8600026EE866A66EEA77A80ED007A80ED016AA0
:10B8700080ED027AC0ED037A15E7DFED0E6A69E725
:10B88000DFED187AB6EE007AB7EE006AE0E7B7EEC1
:10B89000004AF0EE445A7FE79FED0C7AF4EEC77A47
:10B8A000F1EE10FAB4D59FED067AAFE720A10700BC
:10B8B00027D4D236DB0F4940DB0FC940E4CB164119
:10B8C000DB0F49C0E4CB16C1DB0FC93FDB0FC9BF9B
:10B8D0009A7C2E36FAAF4FB93587083CF304353FD2
:10B8E000A4AA2ABE0000000010B48B4CB4FBF2F4F2
:10B8F000A1420FD300234FF07E5202604360836069
:10B90000C360036100235DF8044B836143610362FC
:10B91000C361704707EE902A9FED807AF8EE676A60
:10B9200007EE901A66EE876AF8EE677A66EEA76A07
:10B93000FDEEE67A17EE902A2032402A00F2DF80F0
:10B94000DFED777AF4EEE76AF1EE10FAF0EE667A60
:10B950000CDDDFED745A9FED746AB0EE677AB4EED9
:10B96000C67AF1EE10FA77EEE57AF6DC9FED6F7AA3
:10B97000F4EEC77AF1EE10FA0CD5DFED6A5A9FEDBE
:10B980006C6AB0EE677AB4EEC67AF1EE10FA77EE32
:10B99000A57AF6D49FED677AF4EEC77AF1EE10FA45
:10B9A00000F3A5809FED647AF4EEC77AF1EE10FA09
:10B9B00003D59FED5E7A77EE677A27EEA76A9FED53
:10B9C0005F7ADFED5F4A9FED5F5ADFED5F5AE6EE8B
:10B9D000074A27EE864AA6EE245AB6EE007AE6EE2D
:10B9E000055AE4EE257A27EE877A9FED526A76EEC5
:10B9F000867AFDEEE75A15EE902A2032402A79D851
:10BA0000F4EEC66AF1EE10FA0CDDDFED465A9FED5A
:10BA1000466AF0EE676AF4EEC66AF1EE10FA77EE67
:10BA2000E57AF6DCDFED416AF4EEE67AF1EE10FA43
:10BA30000CD5DFED3C5A9FED3E6AF0EE676AF4EEFE
:10BA4000C66AF1EE10FA77EEA57AF6D4DFED396A20
:10BA5000F4EEE67AF1EE10FA54DDDFED316A76EEBF
:10BA6000E77A27EEA76ADFED356ADFED354A9FED0D
:10BA7000355ADFED355AE6EE264A27EE864AA6EE1F
:10BA8000245AF8EE006AE6EE055AE4EE257A67EEEF
:10BA9000A66A012B1CBFB7EE006A76EE677A87EEC6
:10BAA000006AB7EE007A76EE074A18BFF6EE005A43
:10BAB00087EE245A18BF67EEA55A37EE466A04BFD0
:10BAC000F0EE667AF7EE005A25EE857A67EE857A13
:10BAD00065EE266A26EE056A80ED007AC0ED017AF1
:10BAE00080ED027AC0ED036A80ED046A0AE79FEDFB
:10BAF0000C7A60E7DFED156AF0EE667AC9E79FED34
:10BB0000137A72E7DFED0C6AF4EEE67AF1EE10FAE2
:10BB1000A7D5DFED066AA2E720A1070027D4D23619
:10BB2000DB0F4940DB0FC940E4CB1641DB0F49C0B6
:10BB3000E4CB16C1DB0FC93FDB0FC9BF9A7C2E36A1
:10BB4000FAAF4FB93587083CA4AA2ABE000000000E
:10BB5000FDEEC07A17EE903A2033402B51D8DFED3E
:10BB60002A7AB4EEE70AF1EE10FA0CDDDFED276A6F
:10BB70009FED277AF0EE407AF4EEC77AF1EE10FAF4
:10BB800030EE660AF6DCDFED237AB4EEE70AF1EE7A
:10BB900010FA0CD5DFED1D6A9FED1F7AF0EE407AAA
:10BBA000F4EEC77AF1EE10FA30EE260AF6D4DFEDA5
:10BBB0001B7AB4EEE70AF1EE10FA18DDDFED127A27
:10BBC00037EEC00A60EE007A9FED157A9FED156A98
:10BBD000DFED156AA7EE876A9FED147AE7EE866AB5
:10BBE00060EE275AA7EEA67AA5EE870A7047DFED2A
:10BBF000107AB4EEE70AF1EE10FAE3D5DFED057A3C
:10BC0000DEE79FED0C0A7047DB0F4940DB0FC940B0
:10BC1000E4CB1641DB0F49C0E4CB16C1DB0FC93FB3
:10BC20009A7C2E36FAAF4FB93587083CA4AA2ABEB3
:10BC3000DB0FC9BF000000009FED2F7A70EE077A7E
:10BC4000FDEEE76A16EE903A2033402B51D8B4EE61
:10BC5000C70AF1EE10FA0CDD9FED286ADFED286AC5
:10BC6000B0EE677AB4EEE67AF1EE10FA77EEC67AC5
:10BC7000F6DC9FED247AF4EEC77AF1EE10FA0CD5DB
:10BC80009FED1E6ADFED206AB0EE677AB4EEE67AC9
:10BC9000F1EE10FA77EE867AF6D49FED177AF4EE8D
:10BCA000C77AF1EE10FA1ADD9FED187A77EE677A0F
:10BCB00027EEA77ADFED166ADFED165A9FED166ABA
:10BCC000E7EE265ADFED156AA7EE256A27EE875ABA
:10BCD000E7EE066AE5EE267AB0EE670A70479FED5A
:10BCE000107AF4EEC77AF1EE10FAE1D59FED057AFD
:10BCF000DCE79FED0C0A7047DB0FC93FDB0FC94043
:10BD0000E4CB1641DB0F49C0E4CB16C1DB0F494041
:10BD10009A7C2E36FAAF4FB93587083CA4AA2ABEC2
:10BD2000DB0FC9BF00000000B5EE400AF1EE10FACB
:10BD300025D007EE902AF8EE670ADFED117A08B5F4
:10BD4000034660EEA70A0846F0EE406A4BB9FFF7DB
:10BD50001DFCFCEEE66A16EE903A99B2BDE808408A
:10BD600094E4022B06D0032BF3D1FFF73FFCBDE890
:10BD7000084047E4FCF770FBFCF77AFBE9E7704703
:10BD8000BD378635B5EE400AF1EE10FA02D1044B0C
:10BD90000B60704703280CBF024B034BF8E700BF52
:10BDA000ED8300087D8400080585000890ED0E7A7B
:10BDB000B5EEC07AF1EE10FA00F3978030EE607ABB
:10BDC000D0ED015A037867EE255A002B5BD101F0C4
:10BDD0000103D0ED117A002B61D077EE677AF0EE97
:10BDE000470AD0ED0F6AC0ED110AF5EEC06AF1EE18
:10BDF00010FA87EE816A55DCD0ED037A26EE276AC9
:10BE0000D0ED056A90ED105A60EE266A76EE857ADE
:10BE100077EEA57A77EE867AF4EEE71AF1EE10FA6D
:10BE200000F38480B4EEE72AF1EE10FA8CBFB0EE96
:10BE3000670AB0EE420A70EE677A90ED044AD0EDE0
:10BE4000024AC0ED135A67EE847A4A07E7EE247A75
:10BE5000B0EE457AA1EE277A80ED125A80ED146A91
:10BE6000C0ED156A80ED160A08D5F0EEC77AF0EE3F
:10BE7000C56AF4EEE67AF1EE10FA6BD580ED107A31
:10BE80000B0756D4704711F001034FF000020CBFAE
:10BE9000F0EE607AF0EE477A0270002B9DD177EEDB
:10BEA000E07A9EE7D0ED0B7AD0ED034A80ED0C1AD4
:10BEB000F5EE407AF1EE10FA04BF9FED285AC5EE78
:10BEC000267A71EE276A08BFC0ED0B7A81EE265AFA
:10BED000D0ED0A7A80ED0D5A36EE676AE5EE067A05
:10BEE00024EEA76AC0ED0A7A8AE7D0ED077A80EDE2
:10BEF000081AF5EE407AF1EE10FA04BF9FED176ACA
:10BF0000C6EE077A70EE606A08BFC0ED077A71EE80
:10BF1000277A90ED067A81EE276A76EEC77A80ED71
:10BF2000096AA6EE277A80ED067A49E7B0EE610A43
:10BF300081E7F4EEC71AF1EE10FA08DCB4EEC72A76
:10BF4000F1EE10FA8CBFF0EE471AF0EE421AC0ED97
:10BF5000101A7047B0EE457A92E700BF83F9223E8F
:10BF6000002301220270C364836403650364436495
:10BF70004365836283657047DFED1A7A80ED010ABD
:10BF8000F4EEE70AF1EE10FAC0ED020A80ED031AB2
:10BF9000C0ED051A12DC0023836003610023012237
:10BFA00080ED0F2AC0ED0E2A0270C364836403651E
:10BFB000036443644365836283657047B4EEE70AB4
:10BFC000F1EE10FA0CDD81EE007AC0EE207AF0EE90
:10BFD000006A77EE877A86EEA77A80ED047ADDE74D
:10BFE0000023DAE7BD378635F0EEC07AB0EEE07AAE
:10BFF000B4EEE77AF1EE10FAB4BFB0EE676AB0EED5
:10C00000476AB5EE406AF1EE10FA46D0B4EEE77A30
:10C01000F1EE10FA8CBFF0EE675AF0EE475AC5EE1B
:10C02000866ADFED1F2ADFED1F3ADFED1F4A9FED25
:10C030001F5A9FED1F3A9FED1F4ADFED1F5AE6EE94
:10C04000E23AA6EE834AE6EEA34AB7EE006AA6EE0F
:10C05000A45AA6EE846AE6EE855AC5EE866AB4EE68
:10C06000E77AF1EE10FA48BFDFED147AF5EEC00A78
:10C0700048BF77EEE66AF1EE10FA48BFDFED107ABE
:10C08000B5EEC00A48BF77EEE66AF1EE10FA48BF97
:10C09000F1EE666AB0EE660A7047DFED076ADEE72A
:10C0A00039094E3DE3B59E3E88FA163E45FE7F3F78
:10C0B00099FB243F69A2163EA7DFA834DB0FC93FD6
:10C0C000DB0F4940B7EE007AF0EEC07AF4EEC77AA3
:10C0D000F1EE10FA77EE676A1DD8B1EEE67ADFED81
:10C0E0000F5ADFED0F6A9FED0F6AE7EEA65ADFEDFC
:10C0F0000E6AA7EEA56AE7EE866A67EE266AB5EED7
:10C10000C00AF1EE10FA44BF9FED087A77EE666A36
:10C11000B0EE660A7047DFED066AF0E72716983D35
:10C12000306E99BC843459BEA40DC93FDB0F494021
:10C1300000000000B0FBF1F301FB130308463BB124
:10C140001946B0FBF1F301FB13030846002BF7D1AE
:10C15000704700BF44F25063984203DDA0F50C40E5
:10C16000A0387047034B9842BCBF00F50C40A0308C
:10C17000704700BFB0B9FFFF48F69F43984203DD08
:10C18000A0F50C40A03870470028BCBF00F50C405B
:10C19000A030704780EAE073A3EBE0738B4203DBCF
:10C1A000002803DD401A704700207047FDD0084486
:10C1B000704700BF884203DB9042A8BF104670471B
:10C1C0000846704700230361704770B50378012B60
:10C1D000044635D10369214D23B9426812B9D5F817
:10C1E00064284260D4ED067A77EE807A013304F158
:10C1F0001C062361C4ED067A3046FCF7A9F9626893
:10C20000D5F864389B1AA268934219D9E06A94ED74
:10C210000A0A4AF035FDD4ED057AB4EEE70AF1EEEC
:10C2200010FA0EDD237B4BB9D5F864282361002377
:10C230006260A3613046BDE87040C3E7032323700A
:10C2400070BDD4ED047AD4ED066AF8EE677A022365
:10C2500086EEA77A84ED067AF1E700BF8814002005
:10C260002DE9F04104461C30254604F164020646DF
:10C2700050ED017AB1EC010A77EE807A40ED017A57
:10C28000FCF766F918309042F2D12369294F6268B1
:10C2900001332361D7F864389B1AA268934246D9C8
:10C2A00004F13008E86A95ED0A0A4AF0E9FCA8456D
:10C2B000D4ED057A1CD0B4EEE70AF1EE10FA05F1E0
:10C2C0001805EFDD237B83BBD7F86428626000226A
:10C2D00023613046A261FFF775FF04F13400226349
:10C2E000FFF770FFA26404F14C00BDE8F04169E77C
:10C2F000B4EEE70AF1EE10FAE4DCD4ED047AD4ED02
:10C30000066AF8EE677A022386EEA77AD4ED0C6A05
:10C3100084ED067A86EEA77AD4ED126A84ED0C7A63
:10C3200086EEA77A84ED127A00E003232370BDE83D
:10C33000F08100BF8814002010B4019C401AA4EBC7
:10C34000030C00FB0CFC511A5DF8044B9CFBF1FC48
:10C350000CEB0300704700BF30EE600A32EE612A3A
:10C3600071EE600A22EE002A82EE200A30EE210AE7
:10C37000704700BFD1ED007ADFEDE16A37EEA67AB3
:10C38000BDEEC76A16EE103A2033402B00F25882F9
:10C39000F4EEE67AF1EE10FA0CDDDFEDDB5A9FEDFC
:10C3A000D96AF0EE476AF4EEC66AF1EE10FA37EE9B
:10C3B000657AF6DCDFEDDE6AB4EEE67AF1EE10FACD
:10C3C0000CD5DFEDD15A9FEDD16AF0EE476AF4EE5D
:10C3D000C66AF1EE10FA37EE257AF6D4DFEDC86AB8
:10C3E000B4EEE67AF1EE10FA40F30282DFEDC96AAC
:10C3F00036EEC77A67EE076A9FEDC76A9FEDC75AA8
:10C40000DFEDC75AA6EE865A9FEDC66AE6EE855A5C
:10C4100027EE264AA6EEA56AA4EE067AF0EE474A73
:10C42000BDEEE77A17EE103A2033402B00F205827A
:10C430009FEDB87AF4EEC77AF1EE10FA0CDD9FEDBD
:10C44000B26A9FEDB07AF0EE676AF4EEC76AF1EE79
:10C4500010FA77EEC67AF6DC9FEDB57AF4EEC77A7D
:10C46000F1EE10FA0CD59FEDA86A9FEDA87AF0EED8
:10C47000676AF4EEC76AF1EE10FA77EE867AF6D4C0
:10C480009FED9F7AF4EEC77AF1EE10FA40F3DB816C
:10C490009FEDA07A77EE677A27EEA77ADFED9E6AA6
:10C4A000DFED9E5A9FED9E6AE7EE265ADFED9D6A0C
:10C4B000A7EE256A27EE874AE7EE066AE4EE267ABB
:10C4C000B0EE675A91ED017ADFED8D7A77EE276A4B
:10C4D000BDEEE66A16EE103A2033402B00F2A6813C
:10C4E000B4EEE77AF1EE10FA0CDDDFED875ADFEDFE
:10C4F000857AB0EE666AB4EEE76AF1EE10FA76EE8F
:10C50000E56AF6DCDFED8A7AF4EEE76AF1EE10FA1E
:10C510000CD5DFED7D5ADFED7D7AB0EE666AB4EEC4
:10C52000E76AF1EE10FA76EEA56AF6D4DFED747ADA
:10C53000F4EEE76AF1EE10FA40F39B81DFED757AD5
:10C5400077EEE66A66EEA67ADFED735A9FED734AE0
:10C550009FED736AA7EEA54ADFED725AA7EE846AD3
:10C5600066EEA73AE7EE865AE3EEA56A66EEC52ABE
:10C5700024EEA63AB0EE666AFDEEC77A17EE903A60
:10C580002033402B00F24F81DFED627AB4EEE77A80
:10C59000F1EE10FA0CDDDFED5C5ADFED5A7AF0EEC9
:10C5A000476AF4EEE76AF1EE10FA37EE657AF6DCE8
:10C5B000DFED5F7AB4EEE77AF1EE10FA0CD5DFED3D
:10C5C000525ADFED527AF0EE476AF4EEE76AF1EE86
:10C5D00010FA37EE257AF6D4DFED497AB4EEE77A31
:10C5E000F1EE10FA40F33A81DFED4A7A37EEC77A7E
:10C5F00067EE077ADFED485A9FED484ADFED486A5B
:10C60000A7EEA54ADFED475AE7EE846A67EE273AC0
:10C61000E7EEA65AA3EEA57AF0EE476AD1ED027ACC
:10C62000DFED375A37EEA57ABDEEC74A14EE103A61
:10C630002033402B00F2EC80F4EEE57AF1EE10FAB4
:10C640000CDDDFED313A9FED2F4AF0EE475AF4EE64
:10C65000C45AF1EE10FA37EE637AF6DCDFED345AA5
:10C66000B4EEE57AF1EE10FA0CD5DFED273A9FED46
:10C67000274AF0EE475AF4EEC45AF1EE10FA37EEBC
:10C68000237AF6D4DFED1E5AB4EEE57AF1EE10FA15
:10C6900040F3FA80DFED1F5A35EEC77A67EE075A8E
:10C6A0009FED1D4A9FED1D2ADFED1D3AA5EE842A60
:10C6B0009FED1C4AE5EE823A67EE251AA5EEA34AE5
:10C6C000A1EE847A25EE072A64EE871A26EE821AF6
:10C6D00026EE077A26EEA10AFDEEE75A15EE903A0D
:10C6E0002033402B00F28F80DFED0A5AF4EEE57A1A
:10C6F000F1EE10FA27DDDFED043A9FED024A19E072
:10C70000DB0FC93FE4CB1641DB0FC940E4CB16C1B8
:10C71000DB0FC93FDB0F49409A7C2E36FAAF4FB989
:10C720003587083CA4AA2ABE00000000DB0FC9BF61
:10C73000DB0F49C0F0EE675AF4EEC45AF1EE10FA7E
:10C7400077EEE37AF6DC5FED065AF4EEE57AF1EE89
:10C7500010FA0CD55FED143A1FED144AF0EE675A4B
:10C76000F4EEC45AF1EE10FA77EEA37AF6D45FED48
:10C77000185AF4EEE57AF1EE10FA40F390805FED8E
:10C780001B5A75EEE77A27EEA74A5FED1D5A5FED5B
:10C790001D3A5FED1D0AE4EE253A67EE845AE4EE99
:10C7A000230A5FED203AE4EE203AE5EEA37A64EE48
:10C7B000A74A65EE275AA6EEA42AE6EEE51A67EE2A
:10C7C000C67A31EE241A75EEC05A80ED007AC0EDBB
:10C7D000017AC0ED026A80ED031AC0ED041AC0EDC3
:10C7E000052AC0ED065A80ED072A80ED083A704709
:10C7F0005FED326AB4EEE67AF1EE10FA7FF5FAAD4B
:10C800005FED356AF4E55FED385AF0EE657ADAE708
:10C810001FED3B2AF0EE421AB0EE420AB0EE421A89
:10C82000B0EE427A58E75FED406AF7E61FED423A14
:10C83000F0EE432AB0EE436A9EE61FED455A41E60C
:10C840005FED474AECE51FED477AF4EEC77AF1EE6B
:10C8500010FA7FF521AE1FED4A7A1BE65FED4D7AA7
:10C86000B4EEE77AF1EE10FA7FF5C2AE5FED507AE2
:10C87000BCE65FED527AF4EEE76AF1EE10FA7FF56E
:10C8800061AE5FED557A5BE65FED585AB4EEE57A3E
:10C89000F1EE10FA7FF502AF5FED5B5AFCE65FED5B
:10C8A0005D5AF4EEE57AF1EE10FA7FF56CAF5FEDCC
:10C8B000605A66E70023036143618361C3610360DB
:10C8C000036243628362C3624360036343638363BF
:10C8D000C3638360036443648364C364C360704759
:10C8E000D1ED017A91ED007AD0ED044A90ED065A2F
:10C8F000D0ED075A90ED050AD0ED080AD0ED0A1ADE
:10C90000D0ED0C2A90ED0D3AD0ED0E3A90ED091ACB
:10C9100090ED0B2AF8EEE76AD1ED027AB8EEC77A0D
:10C92000F8EEE77A26EEA64AA7EE275AE7EE074A80
:10C93000B0EE446A75EE875AA7EE076AE7EE272A3B
:10C94000E7EEA73AA7EE260AE7EE260AE6EEA71AD2
:10C95000A6EEA73A31EE041AC0ED044A90ED0F4A54
:10C96000D0ED104A80ED065AC0ED075A90ED115AED
:10C97000D0ED125AC0ED0E3AA7EEA76A34EE274A60
:10C9800074EE874A75EEA75A35EE265A32EE262AFD
:10C9900080ED0F4AC0ED104A80ED115A80ED050A76
:10C9A000C0ED080A80ED091AC0ED0A1A80ED0B2AC5
:10C9B000C0ED0C2A80ED0D3AC0ED125A90ED004A00
:10C9C00090ED025AD0ED014AD0ED133AD0ED035A62
:10C9D000A7EE064AB0EE457AA7EE867AE6EE864ADC
:10C9E000F7EE007A73EEA77A35EE866AC0ED137A19
:10C9F00080ED004AC0ED014A80ED027A80ED036AC5
:10CA0000704700BF10B50024034684468646002CBC
:10CA100000F00D81DEED006A9CED007AD3ED007A26
:10CA2000E6EEC77A012CC3ED007A00F00F81DEED4F
:10CA3000016A9CED047AE6EEC77A032CC3ED007A16
:10CA40006CD1DEED026A9CED087AE6EEC77AC3EDA2
:10CA5000007AD2ED007A90ED085AD0ED0C5AD0ED64
:10CA6000044A92ED017AD2ED026A92ED036AA7EED2
:10CA7000E47AE7EEC56AA7EEE56A90ED095AD0EDD3
:10CA80000D5AE7EE456AA5EEC76AD0ED0E5AA5EE3F
:10CA9000E66A81ED036A90ED0F5AC1ED026AC6EEB7
:10CAA000055AC1ED035A90ED0B6AE5EEC66AC1ED79
:10CAB000026A90ED0A5A81ED017A86EE856A81ED6F
:10CAC000026AD0ED066AA6EE667A81ED017AD0EDB3
:10CAD000076AA5EEE67A81ED017A90ED055AC1ED7F
:10CAE000007AC7EE056AC1ED016A90ED017AE7EEC2
:10CAF000667AC1ED007A90ED027AE7EE467AC1EDF2
:10CB0000007A90ED037AE7EE657AC1ED007AD0ED18
:10CB1000006A87EEA67A81ED007A10BD9EED007A5C
:10CB2000DCED016AD3ED017AE7EE667A022CB1EE14
:10CB3000476AC3ED017ADEED016A9CED057AE6EE07
:10CB4000C77AC3ED017A40F0AC80DEED046A9CED5B
:10CB5000007AD3ED047AE6EEC77A012CC3ED047AAD
:10CB600040F28780DEED056A9CED047AE6EEC77A36
:10CB7000032CC3ED047A7FD19EED066ADCED086AD2
:10CB800093ED007AE6EE667AC7EE876AC3ED046A33
:10CB90009EED086ADCED006AD3ED087AE6EE667A6F
:10CBA000012CC3ED087A70D99EED096ADCED046AA8
:10CBB000E6EE667A032CC3ED087A07D19EED0A6A89
:10CBC000DCED086AE6EE667AC3ED087A93ED086A52
:10CBD000D3ED0C7AC6EE076A032CC3ED086A9CED10
:10CBE000006ADEED0C6AE6EE667AC3ED0C7A9CED27
:10CBF000046ADEED0D6AE6EE667AC3ED0C7A07D1C3
:10CC00009EED0E6ADCED086AE6EE667AC3ED0C7AFC
:10CC1000D3ED0C6AC6EE877AC3ED0C7A0134143377
:10CC20000EF1100E0CF1040C002C7FF4F3AED3EDDA
:10CC3000047A93ED007A93ED086AC7EE876AC6EE30
:10CC4000077AC3ED046AC3ED087AE1E7DEED006A16
:10CC50009CED016A93ED017AD3ED027AA6EEC67AD5
:10CC600083ED017A9CED027AE7EE667AC3ED027AF3
:10CC70006BE793ED007A87E793ED007AC7EE876A5A
:10CC8000022CC3ED046AC9D082E7C7EE876AC3ED00
:10CC9000086AC3D09CED006ADEED0C6AD3ED0C7A15
:10CCA000B2E79CED027AD3ED027AE6EE077A032C26
:10CCB000C3ED027ADCED066A9EED017AE6EEC77AF4
:10CCC000C3ED027A7FF441AFDEED026A9CED0A7A91
:10CCD000E6EEC77AC3ED027ABBE600BF10B584B0BA
:10CCE0000C46024669461030FFF78CFEDDED006A07
:10CCF0009DED017ADDED027AB6EE006A66EE866A97
:10CD000027EE067A67EE867A0120C4ED006A84ED8C
:10CD1000017AC4ED027A04B010BD00BF20EE000A13
:10CD2000FEEE007A60EE277A60EEA00A9FED020A1E
:10CD3000C7EEA00A4DF09CBE54F82D4008B54AF04D
:10CD400065FF07EE900AF5EEC07AF1EE10FAACBF7F
:10CD5000B1EEE70A9FED010A08BD00BF0000000028
:10CD600060EEA00AE0EE000AB1EEE00A704700BFF4
:10CD700021EE011AA0EEA01AA0EE001AB1EEC10A2F
:10CD800070472DE9F74F90469DF83020002A14BFD8
:10CD90004FF030094FF020090D9A1C1E05460F4632
:10CDA000BABF64420123002312F8011B01B12CB960
:10CDB000A24663B100240D9EA41B12E0013CF3E7E0
:10CDC000BD4204D2494628460193C047019BBAF1AF
:10CDD000010AF5D2EFE7BD4203D228460193C047CE
:10CDE000019B06EB040B16F8011B0029F3D133B1AC
:10CDF0005446002C07DCBAF1000FA8BFD3445846B4
:10CE000003B0BDE8F08FBD4202D249462846C04774
:10CE1000013CEEE70FB437B50B4D06ABD5F8141A4D
:10CE200053F8042BD5F8100A019348F07FF8044614
:10CE3000D5F8740303F0DFFF0028F9D0204603B0D3
:10CE4000BDE8304004B07047802500200EB403B523
:10CE500003AB084953F8042BCDE9003001A848F092
:10CE600065F8019B00221A7002B05DF804EB03B074
:10CE7000704700BFA38500080CB430B52C4CD4F823
:10CE8000183AA5B01BB9D4F81C3A002B3AD094F844
:10CE9000203A994206D9012303FA00F0D4F8243A43
:10CEA00018422FD0234BD3F864184FF47A7304A898
:10CEB000B1FBF3F203FB12131F49FFF7C7FF04ABEB
:10CEC0000344289A1D490393054629AB03A80293FE
:10CED00048F02CF8039B591C03910A211970039BFD
:10CEE0000246591CD4F8180A03910021197090B118
:10CEF00003681B6A03B19847D4F8185A04AC14F8B5
:10CF0000011B21B925B0BDE8304002B0704728466A
:10CF100003F002FFF3E7D4F81C3A002BF2D0022111
:10CF20002A4400910A44FD2004A921F0A3F9E9E76D
:10CF30008025002088140020D26706084785000855
:10CF400030B54FF4004087B020F022F90446A0B37A
:10CF50004FF4004120F07EFA02281CD1226848F2EA
:10CF600001039A4229D1234C002584F8BC5C4FF47C
:10CF7000004047F09FFB00B3D4F8283A83421ED00C
:10CF8000D4F8043B83422FD0D4F8E03B98422ED013
:10CF9000C4F81C5A11E00023022294F90400CDE9E0
:10CFA00001234FF4612200924FF400411A4620F011
:10CFB000A1FA104BC3F8180A28B907B030BD04F61F
:10CFC0002823C4F81C3A0C4B04930C4B03930C4BD2
:10CFD00002930C4B01930C4B00930C4A0C4B022117
:10CFE0000020FFF749FFE8E704F60433E9E704F51A
:10CFF0003E63E6E780250020DE670608E76706084F
:10D00000F0670608FC67060897670608F1730608CC
:10D01000AA670608174A38B5D2F8C04C033004EBAB
:10D020009003B3F5007F19D802F6C445C2F8C03C9E
:10D03000114A02EB810120F00300D1F8CC23C3F5A3
:10D0400000731044C1F8CC030C4A9B00042100205B
:10D0500005EB8404FFF710FF204638BD0021084A85
:10D060000846FFF709FF074A136843F0007313608F
:10D070000024F1E7802500207836002002680608A9
:10D080002568060800E200202DE9F84F0268DFF865
:10D09000A4800646002358F833108A420BD1DDB233
:10D0A0000D2D0CD9204A00210520FFF7E5FE0024B4
:10D0B0002046BDE8F88F01330E2BECD1F2E71B4F71
:10D0C00007EB850A4FEA8509DAF878B3BBF1000F60
:10D0D0001AD107216420FFF79DFF0446CAF87803A0
:10D0E00028B90146124A0520FFF7C6FEE0E7642290
:10D0F000594650F06CFCDAF8783308EBC505C3E903
:10D100000053DB615B63DB644F447179D7F878438C
:10D11000182000FB014300221C46C3E903229E6045
:10D120001A750434C4E700BF336806088025002060
:10D1300058680608DCDB050803685A1C0260197091
:10D140000368090A5A1C02601970704703685A1C68
:10D150000260197003685A1C02600A0A1A70036898
:10D160005A1C02600A0C1A700368090E5A1C0260ED
:10D170001970704703685A1C02600A0A1A70036823
:10D180005A1C02601970704738B50446006815468D
:10D1900050F0E4F923682B44236038BD03685A1C1F
:10D1A00002601878704703685A1C02601A4612F829
:10D1B000021B0260587841EA0020704710B50268EF
:10D1C0001146531C036011F8024B0160D31C5178C7
:10D1D000036093781B0443EA0123111D0160D0789A
:10D1E000234343EA006010BDD1E900329A4206D0E1
:10D1F0005A1C0A6008B11B78037001207047002098
:10D200007047D1E900239B1A012B10B5044608464C
:10D2100004DDFFF7C8FF2080012010BD0020FCE7DF
:10D2200030B50A440446914201D1002011E014F8BF
:10D23000013BA3F14100192811F8010BA0F14105B0
:10D2400098BF2033192D98BF20301B1A02D1002817
:10D25000E9D130BD1846FCE710B50288C378A2F5C5
:10D26000FA62910840F2B554013B04FB0133817826
:10D270000C24013902F0030204FB02120C498479E8
:10D2800001EB42021821B2F844211344027901FB58
:10D290000322437900893C2101FB0233054A2244E1
:10D2A00001FB03224FF47A730021C2FB030110BD7E
:10D2B00008DB050880436D382DE9F04190461F4694
:10D2C00005464FF47A720023404639464AF0FCFD89
:10D2D000284B3C21034493FBF1F201FB1233AB7169
:10D2E00092FBF1F301FB13226A7140F2B55118224F
:10D2F00093FBF2F402FB143394FBF1F201FB1244B2
:10D30000B4F5896F2B714FEA82032EDA40F2DA22EC
:10D3100094422CDCB4F5B77FB4BF00210121164A3A
:10D32000182000FB01220B2632F81600A04201DD76
:10D33000013EF9D103F5FA630B442B80731CAB70EB
:10D340000C2303FB01660D4B03EB46060134B6F8D4
:10D350004431E41AEC704FF47A72002340463946A7
:10D360004AF0B2FD2A81BDE8F0810321D7E702210E
:10D37000D5E700BF80BC92C74CDC050808DB050878
:10D38000F0B5274D06460F460FCD8DB06C460FC445
:10D390000FCD0FC495E80F0084E80F0016F00303CB
:10D3A0003AD1642196FBF1F201FB126242B94FF4CB
:10D3B000C87296FBF2F302FB1363003B18BF012314
:10D3C000721EC3F11D03002A019340F26D13104633
:10D3D00006FB03F3B8BFB01C03EBA0006FF06303C0
:10D3E00092FBF3F318444FF4C87392FBF3F210442A
:10D3F0000630694600240725013F51F8042BA74257
:10D4000002EB000393FBF5F0C0EBC000A3EB0000C0
:10D4100004D1101A0DB0F0BD0123D1E70134ECE7BF
:10D42000ACDC0508094BD3F85014D3F8542451EA66
:10D43000020309D0064BD3F864385B1842F10002AE
:10D44000C0E9003201207047002070477836002084
:10D450008814002037B505466846FFF7E3FF044609
:10D4600038B1DDE900232846FFF726FF204603B048
:10D4700030BD40F2011328806B80A880A8712881FC
:10D48000F4E700BF8842F0B54FF0010461D301FB1F
:10D4900004F4B0FBF4FC8C45F9D284B3002A45D0E7
:10D4A000002511E0BCF1090F2646CCBF37223022FF
:10D4B0009444B14283F800C0744603F1010305F1BE
:10D4C00001051CD8B0FBFEFCB4FBF1FE04FB1C0004
:10D4D000002DE7D1BCF1000FE4DCA1420BD8B0FB7A
:10D4E000FEFCBCF1000F74460EFB1C00BEFBF1FEFF
:10D4F000D8DCA142F3D90CF1300C03F801CB0022A7
:10D500001A70F0BDBCF1090F2646CCBF4FF0570E84
:10D510004FF0300EF444B14283F800C02C4603F1C2
:10D52000010302F10102EAD8B0FBF5FCB4FBF1F50E
:10D5300004FB1C00002AE5D1BCF1000FE2DCA14293
:10D54000D9D8B0FBF5FC2C4605FB1C00B5FBF1F56A
:10D55000F2E78446002AA3D1E8E700BF0028BCBF59
:10D560002D23404270B5B8BF01F8013B092804469D
:10D570004FF0010307DD03EB83035B00B0FBF3F225
:10D58000092AF8D83BB3164D4FF0000C0AE0092ADF
:10D590008CBF572130210A44092B0EF8012B16D9D4
:10D5A00071460346A5FB0320B4FBF3F25CEA0206D6
:10D5B0008E464FEAD00003FB12440CF1010CE6D179
:10D5C000092B01D9B446EBE730320EF8012B0023CA
:10D5D0008EF8003070BD8E4600238EF8003070BD8E
:10D5E000CDCCCCCC90422DE9F0410B4604461546FB
:10D5F0000AD2B0FBF5F6134A05FB16441846135D34
:10D6000000F8013BBDE8F081B0FBF2F69642B6FBB4
:10D61000F2F706D20B4A05FB1767D15D03F8011B31
:10D62000EAE7BA42B7FBF2F807D9064A05FB1878D1
:10D6300012F8081003F8011BEDE74046FFF7D2FF90
:10D640000346F2E7EC680608B5EEC00ADFED307A73
:10D65000F1EE10FACCBF30EE270A30EE670ADFEDAC
:10D660002D7A20EE270A70B5FDEEC07A86B017EE4F
:10D67000904A054684EAE470002303A9A0EBE47015
:10D68000CDE90033029347F073FD002CACBF20239B
:10D690002D2303A88DF8003049F024FE01286E46A2
:10D6A00026D002282DD003281CD003A9304650F0E4
:10D6B00096F9304649F016FE0338C4B22246314688
:10D6C00028464FF04BFF00232B55284649F00AFE11
:10D6D0002E232B5401303119284450F09CF9284650
:10D6E00006B070BD302303A930468DF80130DEE767
:10D6F00043F23002302303A9ADF801208DF8033046
:10D70000D4E743F2300303A93046ADF80130CEE749
:10D710006F12033A00007A440378202B024600F18E
:10D720000100F9D0092BF7D02D2B25D02B2B00F0A1
:10D73000A280B7EE000AA3F13001C8B209289FED1C
:10D74000587A10D8F2EE046A07EE901AF8EEE77AEB
:10D7500012F8013FE7EE267AA3F13001C8B209289A
:10D76000B0EE677AF0D92E2B62D003F0DF03452BA1
:10D7700007D020EE070A70475378BFEE000A024632
:10D78000D9E710B451782D297AD02B290BBF917885
:10D79000A1F13003A1F13003013208BF0232092B9D
:10D7A00064D80024002303EB830301EB430312F846
:10D7B000011FA1F130000928A3F13003F3D9B3F51B
:10D7C0009A7F1A4628BF4FF49A72072B64D9DFED6F
:10D7D000356A1346F7EE007A083B072B67EEA67A08
:10D7E000FAD802F00702DAB1F2EE046A012A67EE13
:10D7F000A67A15D0022A67EEA67A11D0032A67EE20
:10D80000A67A0DD0042A67EEA67A09D0053A67EE0B
:10D81000A67A05D067EEA67A012A18BF67EEA67A27
:10D8200034B387EE277A5DF8044B20EE070A704781
:10D830005378A3F13001C8B2092802F1010294D84B
:10D84000F2EE046AF0EE665A07EE901AF8EEE77A06
:10D8500012F8013F87EEA66AA3F13001C8B2092889
:10D8600066EEA56A37EE067AEED97EE7F7EE007A25
:10D8700027EE277AD7E75378B7EE000A02465AE731
:10D880009178A1F13003092B02F1020288BFF7EE73
:10D89000007AC6D8012485E7F7EE007AA3E700BF37
:10D8A0000000000020BCBE4C0378202B024600F193
:10D8B0000100F9D0092BF7D0303BDBB2092B4FF038
:10D8C00000000AD812F8011F00EB8000303903EB8A
:10D8D0004000CBB2092BF5D9704770470378202B55
:10D8E000024600F10100F9D0092BF7D02D2B0CBF17
:10D8F0000246012092F800C0ACF13001CBB208BF63
